{
  "_format": "hh-sol-artifact-1",
  "contractName": "MultiSigWallet",
  "sourceName": "contracts/MultiSigWallet.sol",
  "abi": [
    {
      "inputs": [
        {
          "internalType": "address[]",
          "name": "_owners",
          "type": "address[]"
        },
        {
          "internalType": "uint256",
          "name": "_numConfirmationsRequired",
          "type": "uint256"
        }
      ],
      "stateMutability": "nonpayable",
      "type": "constructor"
    },
    {
      "anonymous": false,
      "inputs": [
        {
          "indexed": true,
          "internalType": "address",
          "name": "owner",
          "type": "address"
        },
        {
          "indexed": true,
          "internalType": "uint256",
          "name": "txIndex",
          "type": "uint256"
        }
      ],
      "name": "ConfirmTransaction",
      "type": "event"
    },
    {
      "anonymous": false,
      "inputs": [
        {
          "indexed": true,
          "internalType": "address",
          "name": "sender",
          "type": "address"
        },
        {
          "indexed": false,
          "internalType": "uint256",
          "name": "amount",
          "type": "uint256"
        },
        {
          "indexed": false,
          "internalType": "uint256",
          "name": "balance",
          "type": "uint256"
        }
      ],
      "name": "Deposit",
      "type": "event"
    },
    {
      "anonymous": false,
      "inputs": [
        {
          "indexed": true,
          "internalType": "address",
          "name": "owner",
          "type": "address"
        },
        {
          "indexed": true,
          "internalType": "uint256",
          "name": "txIndex",
          "type": "uint256"
        }
      ],
      "name": "ExecuteTransaction",
      "type": "event"
    },
    {
      "anonymous": false,
      "inputs": [
        {
          "indexed": true,
          "internalType": "address",
          "name": "owner",
          "type": "address"
        },
        {
          "indexed": true,
          "internalType": "uint256",
          "name": "txIndex",
          "type": "uint256"
        }
      ],
      "name": "RevokeConfirmation",
      "type": "event"
    },
    {
      "anonymous": false,
      "inputs": [
        {
          "indexed": true,
          "internalType": "address",
          "name": "owner",
          "type": "address"
        },
        {
          "indexed": true,
          "internalType": "uint256",
          "name": "txIndex",
          "type": "uint256"
        },
        {
          "indexed": true,
          "internalType": "address",
          "name": "to",
          "type": "address"
        },
        {
          "indexed": false,
          "internalType": "uint256",
          "name": "value",
          "type": "uint256"
        },
        {
          "indexed": false,
          "internalType": "bytes",
          "name": "data",
          "type": "bytes"
        }
      ],
      "name": "SubmitTransaction",
      "type": "event"
    },
    {
      "inputs": [
        {
          "internalType": "uint256",
          "name": "_txIndex",
          "type": "uint256"
        }
      ],
      "name": "confirmTransaction",
      "outputs": [],
      "stateMutability": "nonpayable",
      "type": "function"
    },
    {
      "inputs": [],
      "name": "deposit",
      "outputs": [],
      "stateMutability": "payable",
      "type": "function"
    },
    {
      "inputs": [
        {
          "internalType": "uint256",
          "name": "_txIndex",
          "type": "uint256"
        }
      ],
      "name": "executeTransaction",
      "outputs": [],
      "stateMutability": "nonpayable",
      "type": "function"
    },
    {
      "inputs": [],
      "name": "getOwners",
      "outputs": [
        {
          "internalType": "address[]",
          "name": "",
          "type": "address[]"
        }
      ],
      "stateMutability": "view",
      "type": "function"
    },
    {
      "inputs": [],
      "name": "getTransactions",
      "outputs": [
        {
          "components": [
            {
              "internalType": "address",
              "name": "to",
              "type": "address"
            },
            {
              "internalType": "uint256",
              "name": "value",
              "type": "uint256"
            },
            {
              "internalType": "bytes",
              "name": "data",
              "type": "bytes"
            },
            {
              "internalType": "bool",
              "name": "executed",
              "type": "bool"
            },
            {
              "internalType": "uint256",
              "name": "numConfirmations",
              "type": "uint256"
            }
          ],
          "internalType": "struct MultiSigWallet.Transaction[]",
          "name": "",
          "type": "tuple[]"
        }
      ],
      "stateMutability": "view",
      "type": "function"
    },
    {
      "inputs": [],
      "name": "numConfirmationsRequired",
      "outputs": [
        {
          "internalType": "uint256",
          "name": "",
          "type": "uint256"
        }
      ],
      "stateMutability": "view",
      "type": "function"
    },
    {
      "inputs": [
        {
          "internalType": "uint256",
          "name": "",
          "type": "uint256"
        }
      ],
      "name": "owners",
      "outputs": [
        {
          "internalType": "address",
          "name": "",
          "type": "address"
        }
      ],
      "stateMutability": "view",
      "type": "function"
    },
    {
      "inputs": [
        {
          "internalType": "uint256",
          "name": "_txIndex",
          "type": "uint256"
        }
      ],
      "name": "revokeConfirmation",
      "outputs": [],
      "stateMutability": "nonpayable",
      "type": "function"
    },
    {
      "inputs": [
        {
          "internalType": "address",
          "name": "_to",
          "type": "address"
        },
        {
          "internalType": "uint256",
          "name": "_value",
          "type": "uint256"
        },
        {
          "internalType": "bytes",
          "name": "_data",
          "type": "bytes"
        }
      ],
      "name": "submitTransaction",
      "outputs": [],
      "stateMutability": "nonpayable",
      "type": "function"
    },
    {
      "inputs": [
        {
          "internalType": "uint256",
          "name": "",
          "type": "uint256"
        }
      ],
      "name": "transactions",
      "outputs": [
        {
          "internalType": "address",
          "name": "to",
          "type": "address"
        },
        {
          "internalType": "uint256",
          "name": "value",
          "type": "uint256"
        },
        {
          "internalType": "bytes",
          "name": "data",
          "type": "bytes"
        },
        {
          "internalType": "bool",
          "name": "executed",
          "type": "bool"
        },
        {
          "internalType": "uint256",
          "name": "numConfirmations",
          "type": "uint256"
        }
      ],
      "stateMutability": "view",
      "type": "function"
    },
    {
      "stateMutability": "payable",
      "type": "receive"
    }
  ],
  "bytecode": "0x60806040523480156200001157600080fd5b50604051620025d6380380620025d68339818101604052810190620000379190620003d8565b60008251116200007e576040517f08c379a0000000000000000000000000000000000000000000000000000000008152600401620000759062000512565b60405180910390fd5b6000811180156200008f5750815181105b620000d1576040517f08c379a0000000000000000000000000000000000000000000000000000000008152600401620000c89062000534565b60405180910390fd5b60005b8251811015620002ff5760008382815181106200011a577f4e487b7100000000000000000000000000000000000000000000000000000000600052603260045260246000fd5b60200260200101519050600073ffffffffffffffffffffffffffffffffffffffff168173ffffffffffffffffffffffffffffffffffffffff16141562000197576040517f08c379a00000000000000000000000000000000000000000000000000000000081526004016200018e90620004ce565b60405180910390fd5b600160008273ffffffffffffffffffffffffffffffffffffffff1673ffffffffffffffffffffffffffffffffffffffff16815260200190815260200160002060009054906101000a900460ff161562000227576040517f08c379a00000000000000000000000000000000000000000000000000000000081526004016200021e90620004f0565b60405180910390fd5b60018060008373ffffffffffffffffffffffffffffffffffffffff1673ffffffffffffffffffffffffffffffffffffffff16815260200190815260200160002060006101000a81548160ff0219169083151502179055506000819080600181540180825580915050600190039060005260206000200160009091909190916101000a81548173ffffffffffffffffffffffffffffffffffffffff021916908373ffffffffffffffffffffffffffffffffffffffff16021790555082600281905550508080620002f69062000633565b915050620000d4565b505050620007ee565b60006200031f62000319846200057f565b62000556565b905080838252602082019050828560208602820111156200033f57600080fd5b60005b858110156200037357816200035888826200037d565b84526020840193506020830192505060018101905062000342565b5050509392505050565b6000815190506200038e81620007ba565b92915050565b600082601f830112620003a657600080fd5b8151620003b884826020860162000308565b91505092915050565b600081519050620003d281620007d4565b92915050565b60008060408385031215620003ec57600080fd5b600083015167ffffffffffffffff8111156200040757600080fd5b620004158582860162000394565b92505060206200042885828601620003c1565b9150509250929050565b600062000441600d83620005ae565b91506200044e82620006f0565b602082019050919050565b600062000468601083620005ae565b9150620004758262000719565b602082019050919050565b60006200048f600f83620005ae565b91506200049c8262000742565b602082019050919050565b6000620004b6602883620005ae565b9150620004c3826200076b565b604082019050919050565b60006020820190508181036000830152620004e98162000432565b9050919050565b600060208201905081810360008301526200050b8162000459565b9050919050565b600060208201905081810360008301526200052d8162000480565b9050919050565b600060208201905081810360008301526200054f81620004a7565b9050919050565b60006200056262000575565b9050620005708282620005fd565b919050565b6000604051905090565b600067ffffffffffffffff8211156200059d576200059c620006b0565b5b602082029050602081019050919050565b600082825260208201905092915050565b6000620005cc82620005d3565b9050919050565b600073ffffffffffffffffffffffffffffffffffffffff82169050919050565b6000819050919050565b6200060882620006df565b810181811067ffffffffffffffff821117156200062a5762000629620006b0565b5b80604052505050565b60006200064082620005f3565b91507fffffffffffffffffffffffffffffffffffffffffffffffffffffffffffffffff82141562000676576200067562000681565b5b600182019050919050565b7f4e487b7100000000000000000000000000000000000000000000000000000000600052601160045260246000fd5b7f4e487b7100000000000000000000000000000000000000000000000000000000600052604160045260246000fd5b6000601f19601f8301169050919050565b7f496e76616c6964204f776e657200000000000000000000000000000000000000600082015250565b7f4f776e6572206e6f7420756e6971756500000000000000000000000000000000600082015250565b7f4f776e6572732072657175697265640000000000000000000000000000000000600082015250565b7f496e76616c6964206e756d626572206f6620726571756972656420636f6e666960008201527f726d6174696f6e73000000000000000000000000000000000000000000000000602082015250565b620007c581620005bf565b8114620007d157600080fd5b50565b620007df81620005f3565b8114620007eb57600080fd5b50565b611dd880620007fe6000396000f3fe6080604052600436106100955760003560e01c8063c01a8c8411610059578063c01a8c84146101ee578063c642747414610217578063d0549b8514610240578063d0e30db01461026b578063ee22610b14610275576100ec565b8063025e7c27146100f157806320ea8d861461012e57806383920e90146101575780639ace38c214610182578063a0e67e2b146101c3576100ec565b366100ec573373ffffffffffffffffffffffffffffffffffffffff167f90890809c654f11d6e72a28fa60149770a0d11ec6c92319d6ceb2bb0a4ea1a1534476040516100e29291906118f1565b60405180910390a2005b600080fd5b3480156100fd57600080fd5b5061011860048036038101906101139190611318565b61029e565b604051610125919061170d565b60405180910390f35b34801561013a57600080fd5b5061015560048036038101906101509190611318565b6102dd565b005b34801561016357600080fd5b5061016c610603565b60405161017991906117a4565b60405180910390f35b34801561018e57600080fd5b506101a960048036038101906101a49190611318565b610779565b6040516101ba959493929190611728565b60405180910390f35b3480156101cf57600080fd5b506101d8610874565b6040516101e59190611782565b60405180910390f35b3480156101fa57600080fd5b5061021560048036038101906102109190611318565b610902565b005b34801561022357600080fd5b5061023e600480360381019061023991906112b1565b610c2b565b005b34801561024c57600080fd5b50610255610de0565b60405161026291906118a6565b60405180910390f35b610273610de6565b005b34801561028157600080fd5b5061029c60048036038101906102979190611318565b610e38565b005b600081815481106102ae57600080fd5b906000526020600020016000915054906101000a900473ffffffffffffffffffffffffffffffffffffffff1681565b600160003373ffffffffffffffffffffffffffffffffffffffff1673ffffffffffffffffffffffffffffffffffffffff16815260200190815260200160002060009054906101000a900460ff16610369576040517f08c379a0000000000000000000000000000000000000000000000000000000008152600401610360906117e6565b60405180910390fd5b8060048054905081106103b1576040517f08c379a00000000000000000000000000000000000000000000000000000000081526004016103a890611826565b60405180910390fd5b81600481815481106103ec577f4e487b7100000000000000000000000000000000000000000000000000000000600052603260045260246000fd5b906000526020600020906005020160030160009054906101000a900460ff161561044b576040517f08c379a0000000000000000000000000000000000000000000000000000000008152600401610442906117c6565b60405180910390fd5b600060048481548110610487577f4e487b7100000000000000000000000000000000000000000000000000000000600052603260045260246000fd5b906000526020600020906005020190506003600085815260200190815260200160002060003373ffffffffffffffffffffffffffffffffffffffff1673ffffffffffffffffffffffffffffffffffffffff16815260200190815260200160002060009054906101000a900460ff16610534576040517f08c379a000000000000000000000000000000000000000000000000000000000815260040161052b90611886565b60405180910390fd5b60006003600086815260200190815260200160002060003373ffffffffffffffffffffffffffffffffffffffff1673ffffffffffffffffffffffffffffffffffffffff16815260200190815260200160002060006101000a81548160ff02191690831515021790555060018160040160008282546105b29190611a96565b92505081905550833373ffffffffffffffffffffffffffffffffffffffff167ff0dca620e2e81f7841d07bcc105e1704fb01475b278a9d4c236e1c62945edd5560405160405180910390a350505050565b60606004805480602002602001604051908101604052809291908181526020016000905b8282101561077057838290600052602060002090600502016040518060a00160405290816000820160009054906101000a900473ffffffffffffffffffffffffffffffffffffffff1673ffffffffffffffffffffffffffffffffffffffff1673ffffffffffffffffffffffffffffffffffffffff168152602001600182015481526020016002820180546106ba90611b54565b80601f01602080910402602001604051908101604052809291908181526020018280546106e690611b54565b80156107335780601f1061070857610100808354040283529160200191610733565b820191906000526020600020905b81548152906001019060200180831161071657829003601f168201915b505050505081526020016003820160009054906101000a900460ff1615151515815260200160048201548152505081526020019060010190610627565b50505050905090565b6004818154811061078957600080fd5b90600052602060002090600502016000915090508060000160009054906101000a900473ffffffffffffffffffffffffffffffffffffffff16908060010154908060020180546107d890611b54565b80601f016020809104026020016040519081016040528092919081815260200182805461080490611b54565b80156108515780601f1061082657610100808354040283529160200191610851565b820191906000526020600020905b81548152906001019060200180831161083457829003601f168201915b5050505050908060030160009054906101000a900460ff16908060040154905085565b606060008054806020026020016040519081016040528092919081815260200182805480156108f857602002820191906000526020600020905b8160009054906101000a900473ffffffffffffffffffffffffffffffffffffffff1673ffffffffffffffffffffffffffffffffffffffff16815260200190600101908083116108ae575b5050505050905090565b600160003373ffffffffffffffffffffffffffffffffffffffff1673ffffffffffffffffffffffffffffffffffffffff16815260200190815260200160002060009054906101000a900460ff1661098e576040517f08c379a0000000000000000000000000000000000000000000000000000000008152600401610985906117e6565b60405180910390fd5b8060048054905081106109d6576040517f08c379a00000000000000000000000000000000000000000000000000000000081526004016109cd90611826565b60405180910390fd5b8160048181548110610a11577f4e487b7100000000000000000000000000000000000000000000000000000000600052603260045260246000fd5b906000526020600020906005020160030160009054906101000a900460ff1615610a70576040517f08c379a0000000000000000000000000000000000000000000000000000000008152600401610a67906117c6565b60405180910390fd5b826003600082815260200190815260200160002060003373ffffffffffffffffffffffffffffffffffffffff1673ffffffffffffffffffffffffffffffffffffffff16815260200190815260200160002060009054906101000a900460ff1615610b0f576040517f08c379a0000000000000000000000000000000000000000000000000000000008152600401610b0690611806565b60405180910390fd5b600060048581548110610b4b577f4e487b7100000000000000000000000000000000000000000000000000000000600052603260045260246000fd5b9060005260206000209060050201905060016003600087815260200190815260200160002060003373ffffffffffffffffffffffffffffffffffffffff1673ffffffffffffffffffffffffffffffffffffffff16815260200190815260200160002060006101000a81548160ff0219169083151502179055506001816004016000828254610bd99190611a40565b92505081905550843373ffffffffffffffffffffffffffffffffffffffff167f5cbe105e36805f7820e291f799d5794ff948af2a5f664e580382defb6339004160405160405180910390a35050505050565b600160003373ffffffffffffffffffffffffffffffffffffffff1673ffffffffffffffffffffffffffffffffffffffff16815260200190815260200160002060009054906101000a900460ff16610cb7576040517f08c379a0000000000000000000000000000000000000000000000000000000008152600401610cae906117e6565b60405180910390fd5b60006004805490509050600060046001816001815401808255809150500390600052602060002090600502019050848160000160006101000a81548173ffffffffffffffffffffffffffffffffffffffff021916908373ffffffffffffffffffffffffffffffffffffffff16021790555083816001018190555082816002019080519060200190610d4992919061117c565b5060008160030160006101000a81548160ff021916908315150217905550600081600401819055508473ffffffffffffffffffffffffffffffffffffffff16823373ffffffffffffffffffffffffffffffffffffffff167fd5a05bf70715ad82a09a756320284a1b54c9ff74cd0f8cce6219e79b563fe59d8787604051610dd19291906118c1565b60405180910390a45050505050565b60025481565b3373ffffffffffffffffffffffffffffffffffffffff167f90890809c654f11d6e72a28fa60149770a0d11ec6c92319d6ceb2bb0a4ea1a153447604051610e2e9291906118f1565b60405180910390a2565b600160003373ffffffffffffffffffffffffffffffffffffffff1673ffffffffffffffffffffffffffffffffffffffff16815260200190815260200160002060009054906101000a900460ff16610ec4576040517f08c379a0000000000000000000000000000000000000000000000000000000008152600401610ebb906117e6565b60405180910390fd5b806004805490508110610f0c576040517f08c379a0000000000000000000000000000000000000000000000000000000008152600401610f0390611826565b60405180910390fd5b8160048181548110610f47577f4e487b7100000000000000000000000000000000000000000000000000000000600052603260045260246000fd5b906000526020600020906005020160030160009054906101000a900460ff1615610fa6576040517f08c379a0000000000000000000000000000000000000000000000000000000008152600401610f9d906117c6565b60405180910390fd5b600060048481548110610fe2577f4e487b7100000000000000000000000000000000000000000000000000000000600052603260045260246000fd5b906000526020600020906005020190506002548160040154101561103b576040517f08c379a000000000000000000000000000000000000000000000000000000000815260040161103290611866565b60405180910390fd5b60018160030160006101000a81548160ff02191690831515021790555060008160000160009054906101000a900473ffffffffffffffffffffffffffffffffffffffff1673ffffffffffffffffffffffffffffffffffffffff168260010154836002016040516110ab91906116f6565b60006040518083038185875af1925050503d80600081146110e8576040519150601f19603f3d011682016040523d82523d6000602084013e6110ed565b606091505b5050905080611131576040517f08c379a000000000000000000000000000000000000000000000000000000000815260040161112890611846565b60405180910390fd5b843373ffffffffffffffffffffffffffffffffffffffff167f5445f318f4f5fcfb66592e68e0cc5822aa15664039bd5f0ffde24c5a8142b1ac60405160405180910390a35050505050565b82805461118890611b54565b90600052602060002090601f0160209004810192826111aa57600085556111f1565b82601f106111c357805160ff19168380011785556111f1565b828001600101855582156111f1579182015b828111156111f05782518255916020019190600101906111d5565b5b5090506111fe9190611202565b5090565b5b8082111561121b576000816000905550600101611203565b5090565b600061123261122d8461193f565b61191a565b90508281526020810184848401111561124a57600080fd5b611255848285611b12565b509392505050565b60008135905061126c81611d74565b92915050565b600082601f83011261128357600080fd5b813561129384826020860161121f565b91505092915050565b6000813590506112ab81611d8b565b92915050565b6000806000606084860312156112c657600080fd5b60006112d48682870161125d565b93505060206112e58682870161129c565b925050604084013567ffffffffffffffff81111561130257600080fd5b61130e86828701611272565b9150509250925092565b60006020828403121561132a57600080fd5b60006113388482850161129c565b91505092915050565b600061134d838361136d565b60208301905092915050565b60006113658383611662565b905092915050565b61137681611aca565b82525050565b61138581611aca565b82525050565b6000611396826119a5565b6113a081856119e0565b93506113ab83611970565b8060005b838110156113dc5781516113c38882611341565b97506113ce836119c6565b9250506001810190506113af565b5085935050505092915050565b60006113f4826119b0565b6113fe81856119f1565b93508360208202850161141085611980565b8060005b8581101561144c578484038952815161142d8582611359565b9450611438836119d3565b925060208a01995050600181019050611414565b50829750879550505050505092915050565b61146781611adc565b82525050565b61147681611adc565b82525050565b6000611487826119bb565b6114918185611a02565b93506114a1818560208601611b21565b6114aa81611c44565b840191505092915050565b60006114c0826119bb565b6114ca8185611a13565b93506114da818560208601611b21565b6114e381611c44565b840191505092915050565b600081546114fb81611b54565b6115058186611a24565b94506001821660008114611520576001811461153157611564565b60ff19831686528186019350611564565b61153a85611990565b60005b8381101561155c5781548189015260018201915060208101905061153d565b838801955050505b50505092915050565b600061157a601383611a2f565b915061158582611c55565b602082019050919050565b600061159d600983611a2f565b91506115a882611c7e565b602082019050919050565b60006115c0601483611a2f565b91506115cb82611ca7565b602082019050919050565b60006115e3601183611a2f565b91506115ee82611cd0565b602082019050919050565b6000611606600983611a2f565b915061161182611cf9565b602082019050919050565b6000611629601883611a2f565b915061163482611d22565b602082019050919050565b600061164c601083611a2f565b915061165782611d4b565b602082019050919050565b600060a08301600083015161167a600086018261136d565b50602083015161168d60208601826116d8565b50604083015184820360408601526116a5828261147c565b91505060608301516116ba606086018261145e565b5060808301516116cd60808601826116d8565b508091505092915050565b6116e181611b08565b82525050565b6116f081611b08565b82525050565b600061170282846114ee565b915081905092915050565b6000602082019050611722600083018461137c565b92915050565b600060a08201905061173d600083018861137c565b61174a60208301876116e7565b818103604083015261175c81866114b5565b905061176b606083018561146d565b61177860808301846116e7565b9695505050505050565b6000602082019050818103600083015261179c818461138b565b905092915050565b600060208201905081810360008301526117be81846113e9565b905092915050565b600060208201905081810360008301526117df8161156d565b9050919050565b600060208201905081810360008301526117ff81611590565b9050919050565b6000602082019050818103600083015261181f816115b3565b9050919050565b6000602082019050818103600083015261183f816115d6565b9050919050565b6000602082019050818103600083015261185f816115f9565b9050919050565b6000602082019050818103600083015261187f8161161c565b9050919050565b6000602082019050818103600083015261189f8161163f565b9050919050565b60006020820190506118bb60008301846116e7565b92915050565b60006040820190506118d660008301856116e7565b81810360208301526118e881846114b5565b90509392505050565b600060408201905061190660008301856116e7565b61191360208301846116e7565b9392505050565b6000611924611935565b90506119308282611b86565b919050565b6000604051905090565b600067ffffffffffffffff82111561195a57611959611c15565b5b61196382611c44565b9050602081019050919050565b6000819050602082019050919050565b6000819050602082019050919050565b60008190508160005260206000209050919050565b600081519050919050565b600081519050919050565b600081519050919050565b6000602082019050919050565b6000602082019050919050565b600082825260208201905092915050565b600082825260208201905092915050565b600082825260208201905092915050565b600082825260208201905092915050565b600081905092915050565b600082825260208201905092915050565b6000611a4b82611b08565b9150611a5683611b08565b9250827fffffffffffffffffffffffffffffffffffffffffffffffffffffffffffffffff03821115611a8b57611a8a611bb7565b5b828201905092915050565b6000611aa182611b08565b9150611aac83611b08565b925082821015611abf57611abe611bb7565b5b828203905092915050565b6000611ad582611ae8565b9050919050565b60008115159050919050565b600073ffffffffffffffffffffffffffffffffffffffff82169050919050565b6000819050919050565b82818337600083830152505050565b60005b83811015611b3f578082015181840152602081019050611b24565b83811115611b4e576000848401525b50505050565b60006002820490506001821680611b6c57607f821691505b60208210811415611b8057611b7f611be6565b5b50919050565b611b8f82611c44565b810181811067ffffffffffffffff82111715611bae57611bad611c15565b5b80604052505050565b7f4e487b7100000000000000000000000000000000000000000000000000000000600052601160045260246000fd5b7f4e487b7100000000000000000000000000000000000000000000000000000000600052602260045260246000fd5b7f4e487b7100000000000000000000000000000000000000000000000000000000600052604160045260246000fd5b6000601f19601f8301169050919050565b7f547820616c726561647920657865637574656400000000000000000000000000600082015250565b7f4e6f74204f776e65720000000000000000000000000000000000000000000000600082015250565b7f547820616c726561647920636f6e6669726d6564000000000000000000000000600082015250565b7f547820646f6573206e6f74206578697374000000000000000000000000000000600082015250565b7f5478206661696c65640000000000000000000000000000000000000000000000600082015250565b7f4e6f7420656e6f75676820636f6e6669726d6174696f6e730000000000000000600082015250565b7f5478206e6f7420636f6e6669726d656400000000000000000000000000000000600082015250565b611d7d81611aca565b8114611d8857600080fd5b50565b611d9481611b08565b8114611d9f57600080fd5b5056fea2646970667358221220d4fd562123706b91788b76e1bd93b8835d44b9b3c16338c4ed60ccffa969d5d664736f6c63430008040033",
  "linkReferences": {},
  "deployedLinkReferences": {}
}