{
  "_format": "hh-sol-artifact-1",
  "contractName": "TestContract",
  "sourceName": "contracts/TestContract.sol",
  "abi": [
    {
      "inputs": [],
      "stateMutability": "nonpayable",
      "type": "constructor"
    },
    {
      "inputs": [
        {
          "internalType": "uint256",
          "name": "j",
          "type": "uint256"
        }
      ],
      "name": "callMe",
      "outputs": [],
      "stateMutability": "nonpayable",
      "type": "function"
    },
    {
      "inputs": [
        {
          "internalType": "uint256",
          "name": "j",
          "type": "uint256"
        }
      ],
      "name": "getData",
      "outputs": [
        {
          "internalType": "bytes",
          "name": "",
          "type": "bytes"
        }
      ],
      "stateMutability": "pure",
      "type": "function"
    },
    {
      "inputs": [],
      "name": "i",
      "outputs": [
        {
          "internalType": "uint256",
          "name": "",
          "type": "uint256"
        }
      ],
      "stateMutability": "view",
      "type": "function"
    }
  ],
  "bytecode": "0x608060405234801561001057600080fd5b50610367806100206000396000f3fe608060405234801561001057600080fd5b50600436106100415760003560e01c80630178fe3f14610046578063e5aa3d5814610076578063e73620c314610094575b600080fd5b610060600480360381019061005b919061017d565b6100b0565b60405161006d91906101ee565b60405180910390f35b61007e610147565b60405161008b9190610210565b60405180910390f35b6100ae60048036038101906100a9919061017d565b61014d565b005b6060816040516024016100c39190610210565b6040516020818303038152906040527fe73620c3000000000000000000000000000000000000000000000000000000007bffffffffffffffffffffffffffffffffffffffffffffffffffffffff19166020820180517bffffffffffffffffffffffffffffffffffffffffffffffffffffffff83818316178352505050509050919050565b60005481565b8060008082825461015e9190610247565b9250508190555050565b6000813590506101778161031a565b92915050565b60006020828403121561018f57600080fd5b600061019d84828501610168565b91505092915050565b60006101b18261022b565b6101bb8185610236565b93506101cb8185602086016102a7565b6101d481610309565b840191505092915050565b6101e88161029d565b82525050565b6000602082019050818103600083015261020881846101a6565b905092915050565b600060208201905061022560008301846101df565b92915050565b600081519050919050565b600082825260208201905092915050565b60006102528261029d565b915061025d8361029d565b9250827fffffffffffffffffffffffffffffffffffffffffffffffffffffffffffffffff03821115610292576102916102da565b5b828201905092915050565b6000819050919050565b60005b838110156102c55780820151818401526020810190506102aa565b838111156102d4576000848401525b50505050565b7f4e487b7100000000000000000000000000000000000000000000000000000000600052601160045260246000fd5b6000601f19601f8301169050919050565b6103238161029d565b811461032e57600080fd5b5056fea26469706673582212200d510ce679a9375a208f5afbc2432a97fdc3880014ae2a771351fa46c3ea4ea464736f6c63430008040033",
  "linkReferences": {},
  "deployedLinkReferences": {}
}